S015000050726F6A6563745F75437379732E73726563C2
S11300000C9434000C9428020C9451000C9451006C
S11300100C9451000C9451000C9451000C94510018
S11300200C9451000C9451000C9451000C94510008
S11300300C9451000C9451000C9451000C945100F8
S11300400C9451000C9451000C9451000C945100E8
S11300500C9451000C9451000C9451000C945100D8
S11300600C9451000C94510011241FBECFEFD8E022
S1130070DEBFCDBF12E0A0E0B1E0ECE4FBE002C0E3
S113008005900D92AE3AB107D9F722E0AEEAB2E09C
S113009001C01D92A93BB207E1F70E940C040C9425
S11300A0A4050C940000CF93882331F08091AE0214
S11300B081608093AE0205C08091AE028E7F8093F2
S11300C0AE028091AE0282608093AE026091AE0275
S11300D080E00E944A0462E080E00E94960400C02E
S11300E064E080E00E94B304882311F0C0E001C002
S11300F0C0E165E080E00E94B304811101C0C062E8
S113010066E080E00E94B304811101C0C06467E02E
S113011080E00E94B304811101C0C06862E080E005
S11301200E949A0400C062E080E00E94960400C02D
S113013064E080E00E94B304811101C0C16065E005
S113014080E00E94B304811101C0C26066E080E0D7
S11301500E94B304811101C0C46067E080E00E9482
S1130160B304811101C0C86062E080E00E949A0477
S11301708C2FCF91089580E00E9453008823DCF3F4
S113018088E090E00197F1F780E00E945300089521
S113019062E080E00E94960400C062E080E00E9479
S11301A09A040895CF93C82F662331F08091AE024C
S11301B081608093AE0205C08091AE028E7F8093F1
S11301C0AE028091AE028D7F8093AE026091AE024A
S11301D080E00E944A048091AE028F778093AE0241
S11301E08091AE028F7B8093AE028091AE028F7DB0
S11301F08093AE028091AE028F7E8093AE02CC23B8
S11302002CF48091AE0280688093AE02C6FF05C0D4
S11302108091AE0280648093AE02C5FF05C08091D8
S1130220AE0280628093AE02C4FF05C08091AE022C
S113023080618093AE026091AE0280E00E944A0425
S11302400E94C8008091AE028F778093AE028091A5
S1130250AE028F7B8093AE028091AE028F7D80933D
S1130260AE028091AE028F7E8093AE02C3FF05C0C2
S11302708091AE0280688093AE02C2FF05C0809177
S1130280AE0280648093AE02C1FF05C08091AE02CD
S113029080628093AE02C0FF05C08091AE0280618F
S11302A08093AE026091AE0280E00E944A040E94F4
S11302B0C8008091AE0280618093AE028091AE024C
S11302C080628093AE028091AE0280648093AE021D
S11302D08091AE0280688093AE026091AE0280E0AD
S11302E00E944A04CF910895CF93C82F0E94BB0067
S11302F060E08C2F0E94D200CF910895611104C058
S113030080580E947401089580540E9474010895D5
S113031081E00E9474010895882331F08091AE0237
S1130320877F8093AE0205C08091AE02886080937F
S1130330AE026091AE0280E00E944A04089582E019
S11303400E9474010895CF93C82F0E94BB00CA3045
S113035049F4803410F480E401C080E080580E94A5
S1130360740113C0803129F460E080EC0E94D20053
S113037006C0803521F460E080E80E94D2000E942B
S1130380BB0061E08C2F0E94D200CF910895CF93DF
S1130390DF93FC0103C00E94A301FE01EF0121963B
S11303A080818111F8CFDF91CF9108951F93CF936E
S11303B0DF93182F0E9439041092AE026091AE02AE
S11303C080E00E944A0480E09AEF0197F1F780915F
S11303D0AE0280628093AE028091AE02806180930F
S11303E0AE026091AE0280E00E944A040E94C800FE
S11303F080E09EE40197F1F70E94C800C0E0D1E0DC
S1130400CE010197F1F70E94C800CE010197F1F7E0
S11304108091AE028F7E8093AE026091AE0280E046
S11304200E944A040E94C8002197F1F788E20E94C2
S1130430740188E00E9474010E94880186E00E9491
S11304407401812F0E947401DF91CF911F9108954F
S11304501F920F920FB60F9211248F938091B402C2
S11304608F5F8093B4028091B402833010F01092B5
S1130470B4028F910F900FBE0F901F9018958FEFBD
S11304808AB91BB880E680937C0087E880937A0061
S1130490089582E08093690081E08DBB789408958B
S11304A085E08093810084E09DE3909389008093AC
S11304B088001092850010928400089587B18063AB
S11304C087B988B1806388B98CE00E94D6010E9404
S11304D09F0180E00E948C0180E091E00E94C701AE
S11304E061E080E00E947E018EE091E00E94C701FD
S11304F02FEF81E19AE7215080409040E1F700C05E
S113050000000E94880108950F931F93CF93DF93F7
S113051000D000D000D0CDB7DEB78091B40290E017
S11305202091B1023091B2028217930711F00E9418
S113053088018091B40290E09093B2028093B1025A
S113054005EB12E04AE0BE016F5F7F4FF801808146
S113055091810E946F054AE0BE016C5F7F4FF801F4
S1130560828193810E946F058091B4028130E1F011
S113057020F0823009F447C081C00E949F018EE1BF
S113058091E00E94C70161E080E00E947E01CE01FB
S113059001960E94C70161E082E00E947E018EE222
S11305A091E00E94C7016AC00E949F0187E391E025
S11305B00E94C70161E080E00E947E018E010C5F11
S11305C01F4FC8010E94C701F80101900020E9F7FC
S11305D0CF01019761E0801B0E947E0184E491E0D9
S11305E00E94C701F80101900020E9F73197CF017B
S11305F0801B910B61E08F5F0E947E018EE991E088
S11306000E94C7013BC00E949F0186E491E00E94C2
S1130610C70161E080E00E947E018091B502909163
S1130620B60282309105B9F028F4009751F0019791
S113063069F024C084309105C1F090F00597D1F0A1
S11306401DC08EE491E00E94C70118C08FE591E0BF
S11306500E94C70113C080E791E00E94C7010EC049
S113066081E891E00E94C70109C082E991E00E94FB
S1130670C70104C083EA91E00E94C70126960FB621
S1130680F894DEBF0FBECDBFDF91CF911F910F91C4
S1130690089524E03DE33093890020938800B19BC2
S11306A011C0109285001092840026B3226026BBEC
S11306B02091AF023091B0022F5F3F4F3093B002D0
S11306C02093AF022091AF023091B002281739076E
S11306D03CF01092B0021092AF0281E090E00895D5
S11306E080E090E00895CF93DF93CDB7DEB7C45692
S11306F0D1090FB6F894DEBF0FBECDBFDC01CB012C
S11307004AE0BE016F5F7F4F0E946F05CE010196E4
S11307100E943405CC59DF4F0FB6F894DEBF0FBEEC
S1130720CDBFDF91CF910895009729F4ECE7F0E075
S113073020812E7F2083019729F4ECE7F0E080816B
S113074081608083EAE7F0E0808180648083809127
S11307507A0086FDFCCF80917900089581E090E0D5
S11307600E94940390E09C01220F331F220F331F39
S1130770820F931F6FEF70E00E944705862F972F1B
S11307806093B5027093B60282309105B9F028F4F3
S1130790009751F0019769F028C084309105C1F0A9
S11307A090F00597D1F021C084EB91E00E943405CC
S11307B01CC084ED91E00E94340517C088EF91E0DD
S11307C00E94340512C088E192E00E9434050DC0F5
S11307D089E392E00E94340508C089E592E00E9412
S11307E0340587E792E00E9434058091B502909128
S11307F0B602089580E090E00E94940324E6829F6C
S1130800C00111246FEF70E00E944705CB01709383
S1130810B8026093B70208950E941C050E9450021A
S11308200E9449020E943F020E945E0281E090E021
S11308300E944903892BD1F00E94AE030E94FA035F
S1130840C5EBD2E06A817B8180E090E00E94730373
S113085080E992E00E9434056881798180E090E02B
S11308600E9473038AEA92E00E9434050E94840283
S1130870DDCF0E94CC0483E08A95F1F7000080E08C
S113088006C0E82FF0E0ED54FD4F10828F5F8823FF
S1130890C1F30895CF93811111C0C62FE82FF0E062
S11308A0ED54FD4F6083895D880F0E94D2048C2F24
S11308B00E9400050E94F80480E001C08FEFCF91F0
S11308C00895CF93DF9381112BC0683058F5282FFA
S11308D030E0F901ED54FD4F9081442349F0C1E02B
S11308E0D0E002C0CC0FDD1F6A95E2F7C92B09C026
S11308F0C1E0D0E002C0CC0FDD1F6A95E2F7C095DD
S1130900C923F901ED54FD4FC083895D880F0E940E
S1130910D2048C2F0E9400050E94F80480E003C0DA
S11309208FEF01C08FEFDF91CF91089541E00E94D6
S11309306104089540E00E9461040895CF938111F9
S11309400EC090E08796880F991F81600E94D204A0
S11309500E941205C82FC0950E94F80401C0CFEF71
S11309608C2FCF910895CF93811111C0683088F4F2
S1130970C62F0E949E048F3F69F0082E000C990B2D
S113098002C095958795CA95E2F7817003C08FEFF1
S113099001C08FEFCF9108951092B90088E1809340
S11309A0B800089594EA9093BC009091BC009923F8
S11309B0E4F79091B900987F983011F0903191F458
S11309C08093BB0084E88093BC008091BC008823A2
S11309D0E4F78091B900887F883131F0803431F4B4
S11309E080E0089581E0089580E0089581E008950D
S11309F084E98093BC008091BC0084FDFCCF089501
S1130A008093BB0084E88093BC008091BC00882361
S1130A10E4F78091B900887F883211F081E008956D
S1130A2080E0089584E88093BC008091BC00882312
S1130A30E4F78091BB0008951092C50087E6809387
S1130A40C400E0ECF0E080818D7F808388E18093B6
S1130A50C10086E08093C20008959091C00095FF84
S1130A60FCCF8093C60008950F931F93CF938C01FE
S1130A70C0E003C00E942D05CF5FF801EC0FF11D0B
S1130A8080818111F7CFCF911F910F91089597FB2A
S1130A90072E16F4009407D077FD09D00E945B0559
S1130AA007FC05D03EF4909581959F4F089570956D
S1130AB061957F4F0895AA1BBB1B51E107C0AA1F74
S1130AC0BB1FA617B70710F0A61BB70B881F991FEB
S1130AD05A95A9F780959095BC01CD010895BB273F
S1130AE04A3031F4992322F4BDE2909581959F4FC9
S1130AF00C947B05BB27FB015527AA27880F991F58
S1130B00AA1FA41710F0A41B83955051B9F7A05D38
S1130B10AA3308F0A95DA193009779F7B111B193B5
S1130B201192CB010C949405DC01FC01672F7191A7
S1130B307723E1F7329704C07C916D9370836291BF
S10F0B40AE17BF07C8F30895F894FFCF68
S1130B4C2A202420232050726F6A656374007C2051
S1130B5C7C207C20506C616E7463617265004D6FF7
S1130B6C697374757265204C6576656C3A0028302F
S1130B7C20746F203529004C69676874204C6576A5
S1130B8C656C3A002500466C6F7765723A005072BA
S1130B9C6163746963616C6C792064656164004998
S1130BAC276D206465687964726174656421200022
S1130BBC49206E6565642077617465722E2E202041
S1130BCC006F6E65204472696E6B20706C65617386
S1130BDC65004C69666520697320676F6F6420201B
S1130BEC202000492063616E74207377696D212184
S1130BFC21202000496D2070726163746963616CFB
S1130C0C6C79206465616421202D466C6F77657264
S1130C1C2E200A0049276D207365766572656C7900
S1130C2C206465687964726174656421202D466C56
S1130C3C6F7765722E200A0049206E6565642077F3
S1130C4C617465722E2E204E4F572121202D466C37
S1130C5C6F7765722E200A00576F756C646E742062
S1130C6C6D696E642061206472696E6B21202D465F
S1130C7C6C6F7765722E200A004C69666520697367
S1130C8C20676F6F6420696E6465656421202D464E
S1130C9C6C6F7765722E200A0057686F2064726F30
S1130CAC70706564206D6520696E746F20612070AE
S1130CBC6F6F6C21200A00492063616E7420737776
S1130CCC696D212121202D466C6F776572200A00F5
S1130CDC2025204C696768742C206D6F69737475BA
S1110CEC7265206C6576656C20000A0A0000B3
S9030000FC
